{
  "_format": "hh-sol-artifact-1",
  "contractName": "Faucet",
  "sourceName": "contracts/Faucet.sol",
  "abi": [
    {
      "inputs": [],
      "stateMutability": "nonpayable",
      "type": "constructor"
    },
    {
      "inputs": [],
      "name": "balance",
      "outputs": [
        {
          "internalType": "uint256",
          "name": "",
          "type": "uint256"
        }
      ],
      "stateMutability": "view",
      "type": "function"
    },
    {
      "inputs": [
        {
          "internalType": "uint256",
          "name": "_quantity",
          "type": "uint256"
        }
      ],
      "name": "requestEther",
      "outputs": [],
      "stateMutability": "nonpayable",
      "type": "function"
    },
    {
      "stateMutability": "payable",
      "type": "receive"
    }
  ],
  "bytecode": "0x6080604052348015600f57600080fd5b506103448061001f6000396000f3fe60806040526004361061002d5760003560e01c806355c87eb014610039578063b69ef8a81461006257610034565b3661003457005b600080fd5b34801561004557600080fd5b50610060600480360381019061005b91906101a8565b61008d565b005b34801561006e57600080fd5b50610077610165565b60405161008491906101e4565b60405180910390f35b670de0b6b3a76400008111156100d8576040517f08c379a00000000000000000000000000000000000000000000000000000000081526004016100cf90610282565b60405180910390fd5b4781111561011b576040517f08c379a0000000000000000000000000000000000000000000000000000000008152600401610112906102ee565b60405180910390fd5b3373ffffffffffffffffffffffffffffffffffffffff166108fc829081150290604051600060405180830381858888f19350505050158015610161573d6000803e3d6000fd5b5050565b600047905090565b600080fd5b6000819050919050565b61018581610172565b811461019057600080fd5b50565b6000813590506101a28161017c565b92915050565b6000602082840312156101be576101bd61016d565b5b60006101cc84828501610193565b91505092915050565b6101de81610172565b82525050565b60006020820190506101f960008301846101d5565b92915050565b600082825260208201905092915050565b7f4d6178207175616e7469747920706572207472616e73616374696f6e2072656160008201527f6368656400000000000000000000000000000000000000000000000000000000602082015250565b600061026c6024836101ff565b915061027782610210565b604082019050919050565b6000602082019050818103600083015261029b8161025f565b9050919050565b7f496e73756666696369656e742062616c616e636520696e20636f6e7472616374600082015250565b60006102d86020836101ff565b91506102e3826102a2565b602082019050919050565b60006020820190508181036000830152610307816102cb565b905091905056fea2646970667358221220060da2431e3ef7da4e5c0e94685def595fe0e85246902593d88424ad2f36147f64736f6c634300081c0033",
  "linkReferences": {},
  "deployedLinkReferences": {}
}